:100000000C948B000C94AA000C94AA000C94AA00E7
:100010000C94AA000C94AA000C94AA000C94AA00B8
:100020000C94AA000C94AA000C94AA000C94AA00A8
:100030000C94AA000C94A2020C94AA000C94AA009E
:100040000C94AA000C94AA000C94AA000C94AA0088
:100050000C94AA000C94AA000C94AA000C94AA0078
:100060000C94AA000C94AA000C94AA000C94AA0068
:100070000C94AA000C94AA000C94AA000C94AA0058
:100080000C94AA000C94AA000C94AA000202340258
:1000900034023402340234023402340234023402B0
:1000A00034023402340234023402340234023402A0
:1000B0003402340234023402340234023402340290
:1000C0003402340234023402340234023402340280
:1000D0003402310234023402340234023402340273
:1000E0002C02340234023402340234022F0205029C
:1000F00008020B020E021102140217021A021D025C
:100100003402340234023402340234023402200253
:1001100023022602290211241FBECFEFD0E4DEBF46
:10012000CDBF11E0A0E0B1E0E4E0F8E000E00BBFFB
:1001300002C007900D92AC31B107D9F721E0ACE1D4
:10014000B1E001C01D92AB35B207E1F70E94F102A8
:100150000C9400040C940000CF93C82F8A3019F43B
:100160008DE00E94AC008091C00085FFFCCFC09361
:10017000C60080E090E0CF9108959C0180B191E0AD
:10018000982791702130310531F02230310549F046
:10019000232B51F403C082E090E008C0892F90E047
:1001A00005C0892F90E002C080E090E08130910589
:1001B00039F421E030911C01311120E020931C0121
:1001C0000895009719F0019741F00EC081E09091D9
:1001D0001C01911180E090E009C081E090911C0128
:1001E000911180E090E002C080E090E081309105C4
:1001F00039F421E030911E01311120E020931D01DE
:100200000895009719F0019741F00EC081E0909198
:100210001C01911180E090E009C081E090911C01E7
:10022000911180E090E002C080E090E08130910583
:1002300039F421E030911D01311120E020931D019E
:10024000089580911D0190E0880F991F90911E01E3
:10025000892B85B980E090E00895442349F021E09E
:1002600030E002C0220F331F6A95E2F7822B089517
:1002700021E030E002C0220F331F6A95E2F720959B
:100280008223089521E030E002C0220F331F6A95D7
:10029000E2F78223089540E064E08FEF0E942D0191
:1002A00088B9000086B160E080950E94420181110A
:1002B00080C086B161E080950E94420181117BC0BF
:1002C00086B162E080950E944201811176C086B1BC
:1002D00063E080950E944201811171C040E065E0B9
:1002E0008FEF0E942D0188B9000086B160E08095F3
:1002F0000E944201811165C086B161E080950E9433
:100300004201811160C086B162E080950E94420185
:1003100081115BC086B163E080950E94420181112A
:1003200056C040E066E08FEF0E942D0188B90000C2
:1003300086B160E080950E94420181114AC086B179
:1003400061E080950E944201811145C086B162E062
:1003500080950E944201811140C086B163E0809582
:100360000E94420181113BC040E067E08FEF0E9494
:100370002D0188B9000086B160E080950E9442019D
:1003800081112FC086B161E080950E9442018111E8
:100390002AC086B162E080950E944201811125C089
:1003A00086B163E080950E9442018823F9F084E4DD
:1003B000089581E3089584E3089587E308958AE228
:1003C000089582E3089585E3089588E3089580E31E
:1003D000089583E3089586E3089589E3089583E209
:1003E000089581E4089582E4089583E408950E94C5
:1003F0004B0190E085349105B8F5FC01EA5BFF4FB5
:100400000C94F7038FE185B931C081E085B92EC026
:1004100082E085B92BC083E085B928C084E085B926
:1004200025C085E085B922C086E085B91FC087E078
:1004300085B91CC088E085B919C089E085B916C0A6
:100440008AE085B913C08BE085B910C08CE085B90E
:100450000DC08DE085B90AC08EE085B907C015B81A
:1004600005C08FE085B902C08BE185B980E090E0DE
:1004700008950F931F93CF93DF93B62FA72FF82FD5
:10048000E92F022F132FD42FC52F04C0062F172FAB
:10049000D82FC92F6B2F7A2F8F2F9E2F202F312FE0
:1004A0004D2F5C2F0E94D503B02FA12FFD2FEC2FD5
:1004B000611571058105910549F7602F712F8D2F09
:1004C0009C2FDF91CF911F910F91089560930001B0
:1004D00070930101809302019093030160931F01C7
:1004E00070932001809321019093220108958BE065
:1004F000809381008DE790E090938900809388003D
:1005000082E080936F0010928500109284008091A9
:10051000000190910101A0910201B091030180932B
:100520001F0190932001A0932101B09322018FB766
:1005300080688FBF089510928100089581E08093B4
:10054000230108951F920F920FB60F9211240BB63C
:100550000F922F933F934F935F936F937F938F935C
:100560009F93AF93BF93EF93FF9380911F0190915F
:100570002001A0912101B09122010197A109B109A7
:1005800080931F0190932001A0932101B093220139
:10059000892B8A2B8B2B91F40E949E028091000163
:1005A00090910101A0910201B091030180931F017C
:1005B00090932001A0932101B0932201FF91EF912C
:1005C000BF91AF919F918F917F916F915F914F916B
:1005D0003F912F910F900BBE0F900FBE0F901F9069
:1005E0001895CF93DF93CDB7DEB72A970FB6F8945F
:1005F000DEBF0FBECDBF11B88FEF82B984B915B879
:100600009AE0E2E1F1E0DE01119601900D929A95F7
:10061000E1F7E0E5F1E0808342E350E060E070E084
:1006200041835283638374834583568367837087D2
:100630002DEB30E032872187E5E4F1E0808304EFA1
:1006400011E020E030E001831283238334830583AB
:1006500016832783308721EE30E032872187EAE353
:10066000F1E0808308EE13E020E030E001831283A4
:1006700023833483058316832783308721E031E089
:1006800032872187EFE2F1E080830AE010E020E08A
:1006900030E0018312832383348305831683278309
:1006A000308721E231E032872187E4E2F1E0808384
:1006B0004183528363837483458356836783708742
:1006C00087EF91E0928781870F2EF2E38F2E912C96
:1006D000A12CB12CF02D01E010E018C0F801EE0FB4
:1006E000FF1F81E090E08C0F9D1FE80FF91F019024
:1006F000F081E02D2181328143815481C501B40113
:100700000E9439024B015C010F5F1F4F053011053C
:1007100028F3C501B4010E9466020E947702E12C11
:10072000F12C38C0F701EE0FFF1FA1E0B0E0AC0FD5
:10073000BD1FEA0FFB1F00811181F8014581568121
:100740006781708581819281A381B481481759079F
:100750006A077B0779F40184F285E02DD8018C913A
:10076000082E000C990B0995F801808315821682DA
:1007700017821086F80185819681A781B085880D42
:10078000991DAA1DBB1D85839683A783B087FFEFA4
:10079000EF1AFF0A85E0E816F10420F280912301A8
:1007A0008823E1F310922301BACFA1E21A2EAA1BEB
:1007B000BB1BFD010DC0AA1FBB1FEE1FFF1FA21711
:1007C000B307E407F50720F0A21BB30BE40BF50B0E
:1007D000661F771F881F991F1A9469F76095709597
:1007E000809590959B01AC01BD01CF010895EE0F5E
:1007F000FF1F0024001C0BBE0790F691E02D09940A
:04080000F894FFCF9A
:10080400010000000000000200000000AC00000035
:0C0814000000500145013A012F012401B1
:00000001FF
