:100000000C948B000C94AA000C94AA000C94AA00E7
:100010000C94AA000C94AA000C94AA000C94AA00B8
:100020000C94AA000C94AA000C94AA000C94AA00A8
:100030000C94AA000C9432020C94AA000C94AA000E
:100040000C94AA000C94AA000C94AA000C94AA0088
:100050000C94AA000C94AA000C94AA000C94AA0078
:100060000C94AA000C94AA000C94AA000C94AA0068
:100070000C94AA000C94AA000C94AA000C94AA0058
:100080000C94AA000C94AA000C94AA009201C4013A
:10009000C401C401C401C401C401C401C401C40138
:1000A000C401C401C401C401C401C401C401C40128
:1000B000C401C401C401C401C401C401C401C40118
:1000C000C401C401C401C401C401C401C401C40108
:1000D000C401C101C401C401C401C401C401C401FB
:1000E000BC01C401C401C401C401C401BF01950124
:1000F00098019B019E01A101A401A701AA01AD01E4
:10010000C401C401C401C401C401C401C401B001DB
:10011000B301B601B90111241FBECFEFD0E4DEBF99
:10012000CDBF11E0A0E0B1E0EEE3F6E000E00BBFF0
:1001300002C007900D92A231B107D9F721E0A2E1E8
:10014000B1E001C01D92A232B207E1F70E94810224
:100150000C941D030C940000CF93C82F8A3019F41F
:100160008DE00E94AC008091C00085FFFCCFC09361
:10017000C60080E090E0CF910895442349F021E04B
:1001800030E002C0220F331F6A95E2F7822B0895F8
:1001900021E030E002C0220F331F6A95E2F720957C
:1001A0008223089521E030E002C0220F331F6A95B8
:1001B000E2F78223089540E064E08FEF0E94BD00E3
:1001C00088B9000086B160E080950E94D20081115C
:1001D00080C086B161E080950E94D20081117BC011
:1001E00086B162E080950E94D200811176C086B10E
:1001F00063E080950E94D200811171C040E065E00B
:100200008FEF0E94BD0088B9000086B160E0809544
:100210000E94D200811165C086B161E080950E9484
:10022000D200811160C086B162E080950E94D20048
:1002300081115BC086B163E080950E94D20081117C
:1002400056C040E066E08FEF0E94BD0088B9000014
:1002500086B160E080950E94D20081114AC086B1CB
:1002600061E080950E94D200811145C086B162E0B4
:1002700080950E94D200811140C086B163E08095D4
:100280000E94D20081113BC040E067E08FEF0E94E6
:10029000BD0088B9000086B160E080950E94D20060
:1002A00081112FC086B161E080950E94D20081113A
:1002B0002AC086B162E080950E94D200811125C0DB
:1002C00086B163E080950E94D2008823F9F084E42F
:1002D000089581E3089584E3089587E308958AE209
:1002E000089582E3089585E3089588E3089580E3FF
:1002F000089583E3089586E3089589E3089583E2EA
:10030000089581E4089582E4089583E408950E94A5
:10031000DB0090E085349105B8F5FC01EA5BFF4F06
:100320000C9414038FE185B931C081E085B92EC0EA
:1003300082E085B92BC083E085B928C084E085B907
:1003400025C085E085B922C086E085B91FC087E059
:1003500085B91CC088E085B919C089E085B916C087
:100360008AE085B913C08BE085B910C08CE085B9EF
:100370000DC08DE085B90AC08EE085B907C015B8FB
:1003800005C08FE085B902C08BE185B980E090E0BF
:1003900008950F931F93CF93DF93B62FA72FF82FB6
:1003A000E92F022F132FD42FC52F04C0062F172F8C
:1003B000D82FC92F6B2F7A2F8F2F9E2F202F312FC1
:1003C0004D2F5C2F0E94F202B02FA12FFD2FEC2F9A
:1003D000611571058105910549F7602F712F8D2FEA
:1003E0009C2FDF91CF911F910F9108956093000191
:1003F00070930101809302019093030160931201B5
:1004000070931301809314019093150108958BE06C
:10041000809381008DE790E090938900809388001D
:1004200082E080936F00109285001092840080918A
:10043000000190910101A0910201B091030180930C
:10044000120190931301A0931401B09315018FB77B
:1004500080688FBF089510928100089581E0809395
:10046000160108951F920F920FB60F9211240BB62A
:100470000F922F933F934F935F936F937F938F933D
:100480009F93AF93BF93EF93FF938091120190914D
:100490001301A0911401B09115010197A109B109AF
:1004A0008093120190931301A0931401B09315014E
:1004B000892B8A2B8B2B91F40E942E0280910001B4
:1004C00090910101A0910201B0910301809312016A
:1004D00090931301A0931401B0931501FF91EF9134
:1004E000BF91AF919F918F917F916F915F914F914C
:1004F0003F912F910F900BBE0F900FBE0F901F904A
:100500001895CF93DF9300D0CDB7DEB780EF87B9D2
:100510008FE088B98FEF84B915B8E7E1F1E0FA838D
:10052000E983808382E390E0A0E0B0E0818392835E
:10053000A383B48385839683A783B08787E891E0FC
:100540009287818762E370E080E090E00E94F6018C
:100550000E94070200E010E03BC0F801EE0FFF1F11
:1005600081E090E08C0F9D1FE80FF91FE080F18083
:10057000D70115964D915D916D917C9118971196CB
:100580008D919D910D90BC91A02D481759076A0738
:100590007B0781F4D7011996ED91FC911A978C9104
:1005A000082E000C990B0995F7018083158216829D
:1005B00017821086F70185819681A781B085C29642
:1005C000A11DB11D85839683A783B0870F5F1F4F41
:1005D0000115110511F2809116018823E1F31092A3
:1005E0001601B8CFA1E21A2EAA1BBB1BFD010DC03C
:1005F000AA1FBB1FEE1FFF1FA217B307E407F507D3
:1006000020F0A21BB30BE40BF50B661F771F881FAE
:10061000991F1A9469F760957095809590959B0144
:10062000AC01BD01CF010895EE0FFF1F0024001C97
:0E0630000BBE0790F691E02D0994F894FFCFD1
:10063E00010000000000000200000000AC000000FD
:02064E000000AA
:00000001FF
