:100000000C9468000C9487000C9487000C94870073
:100010000C9487000C9487000C9487000C94870044
:100020000C9487000C9487000C9487000C94870034
:100030000C9487000C949F020C9487000C9487000A
:100040000C9487000C9487000C9487000C94870014
:100050000C9487000C9487000C9487000C94870004
:100060000C9487000C9487000C9487000C948700F4
:100070000C9487000C9487000C9487000C948700E4
:100080000C9487000C9487000C9487003002330294
:1000900033023302330233023302280233023302C3
:1000A0003302330233022C02F401F801FC01000296
:1000B000040208020C02100214023302330233025B
:1000C000330233023302330218021C0220022402DC
:1000D00011241FBECFEFD0E4DEBFCDBF11E0A0E002
:1000E000B1E0EEE9F7E000E00BBF02C007900D922F
:1000F000A431B107D9F721E0A4E1B1E001C01D921C
:10010000AF32B207E1F70E94EE020C94CD030C94DB
:10011000000040E050E00CC000002F5F3F4F02C0E5
:1001200020E030E0273063E03607B4F34F5F5F4FE5
:1001300048175907ACF3089595B19F7B95B98BB9D2
:1001400085B1806885B9000085B18F7785B982E077
:1001500090E00E948900089581E00E949C0008952B
:10016000813120F481580E949C00089581550E949D
:100170009C00089584E690E00E94890088E30E9434
:100180009C0086E00E949C008FE00E949C0081E021
:100190000E949C008AE090E00E948900089595B139
:1001A000906495B98BB985B1806885B9000085B137
:1001B0008F7785B981E090E00E9489000895EF92E1
:1001C000FF920F931F93CF93DF93182FEB010E94A1
:1001D000AC000EC001E0010F812F0E94B0007E0133
:1001E0008FEFE81AF80A88810E94CF00102FE701EC
:1001F00088818111EFCFDF91CF911F910F91FF90F7
:10020000EF900895CF93C82F8A3019F48DE00E94A3
:1002100002018091C00085FFFCCFC093C60080E042
:1002200090E0CF9108950E94AC008091000190E091
:100230000E94CF0080E090E00895442349F021E03F
:1002400030E002C0220F331F6A95E2F7822B089537
:1002500021E030E002C0220F331F6A95E2F72095BB
:100260008223089521E030E002C0220F331F6A95F7
:10027000E2F78223089540E064E08FEF0E941D01C1
:1002800088B9000086B160E080950E94320181113A
:1002900080C086B161E080950E94320181117BC0EF
:1002A00086B162E080950E943201811176C086B1EC
:1002B00063E080950E943201811171C040E065E0E9
:1002C0008FEF0E941D0188B9000086B160E0809523
:1002D0000E943201811165C086B161E080950E9463
:1002E0003201811160C086B162E080950E943201C6
:1002F00081115BC086B163E080950E94320181115B
:1003000056C040E066E08FEF0E941D0188B90000F2
:1003100086B160E080950E94320181114AC086B1A9
:1003200061E080950E943201811145C086B162E092
:1003300080950E943201811140C086B163E08095B2
:100340000E94320181113BC040E067E08FEF0E94C4
:100350001D0188B9000086B160E080950E943201DD
:1003600081112FC086B161E080950E943201811118
:100370002AC086B162E080950E943201811125C0B9
:1003800086B163E080950E9432018823F9F084E40D
:10039000089581E3089584E3089587E308958AE248
:1003A000089582E3089585E3089588E3089580E33E
:1003B000089583E3089586E3089589E3089583E229
:1003C000089581E4089582E4089583E408950E94E5
:1003D0003B0190E0FC01B397E232F10508F043C025
:1003E000EA5BFF4F0C94C40381E3809300013BC0A0
:1003F00082E38093000137C083E38093000133C020
:1004000084E3809300012FC085E3809300012BC01B
:1004100086E38093000127C087E38093000123C017
:1004200088E3809300011FC089E3809300011BC013
:1004300081E48093000117C082E48093000113C01F
:1004400083E4809300010FC084E4809300010BC01B
:100450008AE28093000107C080E38093000103C01B
:1004600083E28093000180E090E008950F931F9352
:10047000CF93DF93B62FA72FF82FE92F022F132F3B
:10048000D42FC52F04C0062F172FD82FC92F6B2F9D
:100490007A2F8F2F9E2F202F312F4D2F5C2F0E94D0
:1004A000A203B02FA12FFD2FEC2F6115710581053F
:1004B000910549F7602F712F8D2F9C2FDF91CF91E0
:1004C0001F910F9108956093010170930201809331
:1004D00003019093040160931401709315018093BC
:1004E00016019093170108958BE0809381008DE7AA
:1004F00090E0909389008093880082E080936F0061
:100500001092850010928400809101019091020167
:10051000A0910301B09104018093140190931501FF
:10052000A0931601B09317018FB780688FBF08950D
:1005300010928100089581E08093180108951F9220
:100540000F920FB60F9211240BB60F922F933F9379
:100550004F935F936F937F938F939F93AF93BF93CB
:10056000EF93FF938091140190911501A0911601D2
:10057000B09117010197A109B109809314019093DB
:100580001501A0931601B0931701892B8A2B8B2B91
:1005900091F40E949B028091010190910201A0912F
:1005A0000301B09104018093140190931501A0936D
:1005B0001601B0931701FF91EF91BF91AF919F91F9
:1005C0008F917F916F915F914F913F912F910F90FC
:1005D0000BBE0F900FBE0F901F901895CF93DF9317
:1005E00000D000D0CDB7DEB780EF87B98FE088B9F3
:1005F0008FEF81B912B884B915B88AB91BB8A4E2D3
:10060000B1E0BA83A983E9E1F1E0FC83EB838C9349
:1006100042E350E060E070E011964D935D936D937E
:100620007C93149715964D935D936D937C931897D7
:1006300027EE31E01A963C932E931997808384E637
:1006400090E0A0E0B0E081839283A383B4838583AC
:100650009683A783B08783E191E0928781870F2EED
:10066000F2E38F2E912CA12CB12CF02D01E010E0A3
:1006700018C0F801EE0FFF1F81E090E08C0F9D1F66
:10068000E80FF91F0190F081E02D21813281438133
:100690005481C501B4010E9436024B015C010F5F19
:1006A0001F4F0230110528F3C501B4010E946302F7
:1006B0000E9474020E94BA00E12CF12C38C0F701AC
:1006C000EE0FFF1FA1E0B0E0AC0FBD1FEA0FFB1F54
:1006D00000811181F8014581568167817085818192
:1006E0009281A381B481481759076A077B0779F47F
:1006F0000184F285E02DD8018C91082E000C990B15
:100700000995F80180831582168217821086F801F8
:1007100085819681A781B085880D991DAA1DBB1D75
:1007200085839683A783B087FFEFEF1AFF0A82E0E5
:10073000E816F10420F2809118018823E1F3109269
:100740001801BACFA1E21A2EAA1BBB1BFD010DC0D6
:10075000AA1FBB1FEE1FFF1FA217B307E407F50771
:1007600020F0A21BB30BE40BF50B661F771F881F4D
:10077000991F1A9469F760957095809590959B01E3
:10078000AC01BD01CF010895EE0FFF1F0024001C36
:0E0790000BBE0790F691E02D0994F894FFCF70
:10079E002001000000000000020000000002010025
:0407AE000000000047
:00000001FF
